:020000040800F2
:10000000201F0020F9010008956500083D540008F4
:100010009165000849190008FB96000800000000DF
:10002000000000000000000000000000FD6E00085D
:10003000C51C000800000000856A0008FF6E00086B
:10004000130200081302000813020008130200083C
:10005000130200081302000813020008130200082C
:10006000130200081302000813020008130200081C
:10007000130200081302000813020008130200080C
:1000800013020008130200081302000813020008FC
:100090004596000813020008130200081302000826
:1000A00013020008130200081302000813020008DC
:1000B00013020008130200081302000813020008CC
:1000C00013020008130200081302000813020008BC
:1000D00013020008130200081302000813020008AC
:1000E00013020008130200081302000800F002F8CF
:1000F00000F073F80AA090E8000C82448344AAF14F
:100100000107DA4501D100F068F8AFF2090EBAE84C
:100110000F0013F0010F18BFFB1A43F0010318473B
:1001200064CC000084CC00000A444FF0000C10F8AE
:10013000013B13F0070408BF10F8014B1D1108BF65
:1001400010F8015B641E05D010F8016B641E01F805
:10015000016BF9D113F0080F1EBF10F8014BAD1C55
:100160000C1B09D16D1E58BF01F801CBFAD505E073
:1001700014F8016B01F8016B6D1EF9D59142D6D3CD
:10018000704700000023002400250026103A28BFF5
:1001900078C1FBD8520728BF30C148BF0B607047F9
:1001A00066290CF09684642900F0B280752900F06D
:1001B000AF80782900F0E880732900F0EA850020FC
:1001C00070471FB500F00CFE0400002000210BF06A
:1001D000A5FEE0601FBD10B510BD00F001FF114687
:1001E000FFF7EFFF0AF0B4FE00F01FFF03B4FFF7C4
:1001F000F2FF03BC00F062FF09488047094800474E
:10020000FEE7FEE7FEE7FEE7FEE7FEE7FEE7FEE7C6
:10021000FEE7FEE704480549054A064B7047000023
:10022000DD6F0008ED00000820190020201F0020CD
:10023000201B0020201B00200FB47CB50C0009AA55
:10024000009001D02044401E084B7B446946019039
:10025000089800F06CFD05461CB10020694600F0CE
:1002600079FD28467CBC5DF814FB0000110B0000F2
:1002700070B5044685690068C10601D5302600E0E6
:100280002026C00707D070BDD4E901213046904731
:10029000206A401C20626D1EF6D570BD70B5044604
:1002A00085690078C00707D170BDD4E901212020FD
:1002B0009047206A401C20626D1EF6D570BD70B557
:1002C0000C460546012A05D02878800600D5EA6943
:1002D000002302E0012305E05B1C934202D2E05CB4
:1002E0000028F9D1A869E618C01AA861286A18443C
:1002F00028622846FFF7BCFF04E0D5E9012114F885
:10030000010B9047B442F8D32846FFF7C7FF70BDF2
:100310002DE9F0410646002410687529314616A5DE
:1003200010D0AFF30080002802DA404213A507E0A6
:1003300031688A0701D512A502E0490704D511A545
:10034000012401E0AFF3008000210A2206F1240716
:1003500009E0B0FBF2FCB0FBF2F302FB1C00303012
:1003600078541846491C0028F3D123462A463046C3
:10037000BDE8F04100F06EBA000000002D00000062
:100380002B0000002000000070B504460D462146F9
:100390001068AFF300802188090502D50F4A7A441E
:1003A00002E00E4A7A440E32002104F1240305E0F3
:1003B00000F00F060009965D5E54491C0028F7D135
:1003C00020780023000704D5702D02D009B1022344
:1003D00011322046BDE8704000F03CBA0EC8000063
:1003E0002DE9F05F894604464FF0000ADFF874B14A
:1003F000FB44C0F820A02046E1688847002874D05C
:10040000252806D0D4E901219047206A401C2062AB
:10041000F1E700265F462046E16888472028054628
:1004200007DB312D05D2781910F8200C08B10643EE
:10043000F1E7B00701D526F00406C4F81CA0002798
:10044000C4F818A02A2D09D0284609F0F1FA38B3CB
:1004500004EB8708303DC8F8185019E059F8041B20
:10046000204604EB87029161E1688847012F054629
:1004700018D1E069002820DA26F020061DE0D8F81F
:10048000180000EB800005EB40003038C8F8180079
:100490002046E1688847054609F0CAFA0028EED1EF
:1004A000012F0AD02E2D08D12046E16888477F1CF5
:1004B0000546022F46F02006C4DBA069002803DAB7
:1004C000404246F00106A061F00701D026F0100678
:1004D0006C2D0BD0682D09D04C2D39D06A2D35D01C
:1004E000742D35D07A2D33D016E038E0E1682F46F0
:1004F00020468847B842054609D16C2F26D04FF4D4
:100500008060E168064320468847054604E06C2F7A
:100510001AD04FF4807006430DB3A5F1410019289D
:1005200002D8203546F400664A4629462046266011
:100530004E46FFF735FE80B101280BD0F61D26F0A0
:10054000070000F1080956E74020E4E78020D8E7DB
:100550000020D6E706F104094DE7284652E7206A55
:10056000BDE8F09FE4C70000401ECAB210F8011FAA
:100570008A4202D00029F9D10020704730B50546E3
:100580000B462A4613F8014B12F8010B08B1A042A2
:10059000F8D01CB1002802D06D1CF1E7284630BD10
:1005A00040EA0103024630B59B0710D14FF00134F9
:1005B00000E008C208C91D1B9D4315EAC41FF8D0FE
:1005C00013F0FF0102F8011B0DD01B0AF8E711F828
:1005D000013B002B02F8013B05D011F8013B002B39
:1005E00002F8013BF3D130BD10B5431C02E010F816
:1005F000011B71B18107FAD14FF0013202C88C1A88
:100600008C4314EAC211F9D0C01A0A0603D0C01EE6
:1006100010BDC01A10BD0A0401D0801E10BD090211
:10062000FCD0401E10BD40EA010370B59B072ED1DF
:100630004FF00136042A2AD308C810C99D1B9D43D8
:10064000121F15EAC61517D0D8B2E1B2401A50EA07
:10065000056110D198B2A1B2401A50EA05410AD101
:1006600023F07F4024F07F41401A50EA052102D157
:10067000180EA0EB146070BDA342DBD018BA21BAEB
:10068000884201D9012070BD4FF0FF3070BD0AB91A
:10069000002070BD10F8013B11F8014B63B1A3427B
:1006A0000AD1521E08D010F8013B11F8014B1BB1C2
:1006B000A34201D1521EEDD1181B70BD032A40F296
:1006C000308010F0030C00F0158011F8013BBCF1F4
:1006D000020F624498BF11F801CB00F8013B38BF0C
:1006E00011F8013BA2F1040298BF00F801CB38BF1A
:1006F00000F8013B11F0030300F02580083AC0F038
:10070000088051F8043B083A51F804CBA0E80810DF
:10071000F5E7121D5CBF51F8043B40F8043BAFF312
:100720000080D20724BF11F8013B11F801CB48BF6C
:1007300011F8012B24BF00F8013B00F801CB48BFA2
:1007400000F8012B704710B5203AC0F00B80B1E8DB
:100750001850203AA0E81850B1E81850A0E81850F6
:10076000BFF4F5AF5FEA027C24BFB1E81850A0E8FF
:10077000185044BF18C918C0BDE810405FEA827C19
:1007800024BF51F8043B40F8043B08BF7047D20730
:1007900028BF31F8023B48BF11F8012B28BF20F8D1
:1007A000023B48BF00F8012B70474FF0000200B534
:1007B000134694469646203922BFA0E80C50A0E884
:1007C0000C50B1F12001BFF4F7AF090728BFA0E832
:1007D0000C5048BF0CC05DF804EB890028BF40F8FE
:1007E000042B08BF704748BF20F8022B11F0804F40
:1007F00018BF00F8012B704710B5044610F0030F26
:1008000008BF11F0030F40F015804FF0013E121F9A
:10081000C0F20E8051F8043BA3EB0E0C2CEA030C43
:100820001CEACE1C08BF40F8043BF0D0A1F1040143
:1008300002F10402521E08DB11F8013B002B00F804
:10084000013BF7D1114600F0A8FA204610BD7047D1
:10085000704770472DE9F0470D4699469246044689
:1008600000F124080168880604D5E06921F0100130
:10087000216000E00120A84201DD471B00E00027C5
:10088000A1697A1902EB0900081AA0612078C00654
:1008900002D42046FFF7ECFC002608E0D4E9012151
:1008A0001AF806009047206A401C761C20624E45CC
:1008B000F4DB2078C0060AD52046FFF7D9FC06E015
:1008C000D4E9012130209047206A401C2062381E64
:1008D000A7F10107F4DC07E0D4E9012118F80500CD
:1008E0009047206A401C2062281EA5F10105F3DC18
:1008F0002046FFF7D3FC2078000602D50220BDE891
:10090000F0870120FBE770472DE9FF4F0C461E469C
:100910004FF0FF378BB0D2E90001DDF860800A901C
:100920008A46C1F30A5505B93D46002108464FF0F5
:100930000000BAF1000F00F4400005DA00EB80007F
:100940004FF4400101EA50004FEA9059B9F1010F0C
:1009500000DDB9460A9850EA4A000ED044F610501D
:10096000A5F2FF3545432F14B8F1000F1ED0754294
:10097000291E1EDDC9F100021CE0B8F1010F4FF085
:10098000000001D0302103E0F24305E02154401C77
:10099000B042FBDB30460022002121540B99C1F804
:1009A0000880C1E900200FB0BDE8F08FBD1B6D1CB1
:1009B000DEE74A4600DA694206A800F09BFA06AB79
:1009C00093E8070003AB83E8070050460A9900F05C
:1009D0007CFB8DE80700A0F500501F3800900398BD
:1009E000002D0ADD42F21F014A460844002303A9F4
:1009F0000390684600F0E5FD09E0A0F500504A4686
:100A00001F38002303A90390684600F0EFFD8DE82E
:100A100007000004000C03D04FF0FF30410800E055
:100A20001046B8F1000F03D00022009215461EE0D8
:100A3000751E05D400F0D8F9303262556D1EF9D517
:100A4000B3460122084302D000227F1C04E0207834
:100A5000302801D100227F1E002A099784D01DE092
:100A6000112D07DA00F0C0F9303262556D1C50EAE2
:100A70000102F5D1084302D00098C8B10EE0002170
:100A8000681E05E0235C625C63542254401E491CCE
:100A90008142F7DBAB46A81B401E0990002004F8FA
:100AA0000B000B98099AC0F80880C0E9002B7AE780
:100AB00011264FF0000857E72DE9F04F884604460D
:100AC000D21D22F0070191B0D1E90001CDE90A0160
:100AD00008F076FF02460B98C00F01D02D2007E0EA
:100AE0002068810701D52B2002E0202101EAC00007
:100AF000032A099001D0072A05DB03464146204618
:100B000000F0B8F90BE12078800601D5E06900E03B
:100B10000620B8F1650F814606D0B8F1660F18D0EF
:100B2000B8F1670F70D131E00020B9F1110F0090DA
:100B300001DB112301E009F101030AAA01A90CA8B4
:100B4000FFF7E2FEDDE90C70002609F1010583469E
:100B500047E001204B4600904FF000470AAA01A948
:100B60000CA8FFF7D1FEDDE90DB00C995D4600261B
:100B700010B909F101000D18B9EB050003D4C0F15B
:100B8000FF3609F10105A5EB09002BE0B9F1010FD2
:100B900001DA4FF001090020B9F1110F0090484629
:100BA00001DD112300E003460AAA01A90CA8FFF702
:100BB000ABFEDDE90C704D46002683462078000729
:100BC0000AD4AB4500DA5D4601A8012D04DD4119C8
:100BD00011F8011C302907D04F4502DA17F1040F34
:100BE00004DA012082460FE06D1EEEE7002F02DCE2
:100BF000ED1B3E4403E0781CA84200DD7D1CB81BC1
:100C000000F1010A4FF000472078000703D4AA45FD
:100C100001DB4FF0FF3A0021B7F1004F0DF143081F
:100C20008DF8431024D002202B23002F01DA7F42BD
:100C30002D230A21021EA0F1010000DC5FB197FB09
:100C4000F1FC97FBF1F201FB1C7C17460CF1300C18
:100C500008F801CDEEE7A8F101000370218809052D
:100C600001D5452100E06521A0F1010800F8011C33
:100C700009980FA9A1EB0807FF1D00B10120411938
:100C800001EBEA70A1693844081A401EA06120787F
:100C9000C00602D42046FFF7EBFA099828B1D4E940
:100CA00001219047206A401C20622078C00622D58E
:100CB0002046FFF7DDFA1EE0002E04DBB34502DD1F
:100CC00001A8805D00E03020D4E901219047206A2E
:100CD000401C2062761CAAF101005FEA000A0AD1DA
:100CE00000F07EF8C0680168405CD4E901219047BB
:100CF000206A401C2062281EA5F10105DCDC07E00B
:100D0000D4E9012118F8010B9047206A401C2062A9
:100D1000381EA7F10107F3DC2046FFF7BFFA0320D6
:100D200011B041E601694A1C02610878704700B5BC
:100D30008FB0CDE901310021059105497944CDE914
:100D4000031011466846FFF74BFB0FB000BD0000D3
:100D5000E5FFFFFF0A6802F8010B0A607047D1E95E
:100D600000239A4202D2531C0B601070704710B5DA
:100D7000436913B1AFF3008001E0FFF7A0FA01204F
:100D800010BD127800F124010A7000224A7001227D
:100D9000EDE711684FF0FF32E9E74FF00002042958
:100DA000C0F0128010F0030C3FF401ADCCF1040C44
:100DB000BCF1020F18BF00F8012BA8BF20F8022BCE
:100DC000A1EB0C01FFF7F3BC5FEAC17C24BF00F884
:100DD000012B00F8012B48BF00F8012B70470000E1
:100DE00000487047E018002030B5B0F10A024FEA21
:100DF000900E71F100034EEA817EB0EB0E0061EBC4
:100E000091014FEA101E4EEA017E10EB0E0041EBFD
:100E100011114FEA102E4EEA016E10EB0E0041EB5D
:100E200011214FEA104E4EEA014E10EB0E0041EB3D
:100E30001141401841F100014FEAD00040EA4170F1
:100E40004FEAD10110EB80054FEA810444EA907427
:100E500044EB01046D1944EB0404521BA3414FF011
:100E6000000348BF0A3200D530BD401C41F10001EB
:100E700030BD00002DE9F0411F46044603260168FD
:100E8000072A01F4006004DB08B116A505E016A5E9
:100E900003E008B115A500E015A521F010002060C1
:100EA000A069C01EA0610FB1401EA0612046FFF7DF
:100EB000DFF94FB1D4E9012138469047206A401C40
:100EC0002062C01C206206E0206AFAE7D4E9012112
:100ED00015F8010B9047761EF8D22046FFF7DEF991
:100EE000BDE8F0814E414E006E616E00494E4600F5
:100EF000696E66002DE9F047814616468AB035488E
:100F000078440DC88DE80D0032487844801C03AC4D
:100F10000DC884E80D0041F69B300844372190FB52
:100F2000F1F290FBF1F5A5F1800501FB12041B3CE9
:100F300002D56442012000E00020DFF898A080463E
:100F40000027FA44AAF1BE0A0EE0E0070AD03246B2
:100F5000684607EB470101230AEB810100F046FBDD
:100F60008DE8070064107F1C002CEED1194F7F44E0
:100F7000AE3F19E0E80715D007EB04100DF1180A91
:100F800090E80E008AE80E00C068F04201D198197E
:100F900008903246012306A903A800F027FB03AB03
:100FA00083E807006D10641C002DE3D14FF00103AE
:100FB00032466946B8F1000F03A802D000F001FBE9
:100FC00001E000F013FBC9E90001C9F808200AB0EC
:100FD000BDE8F08764BD000000487047C0180020DD
:100FE0007546FFF7F9FFAE4605006946534620F007
:100FF0000700854618B020B5FFF70CF9BDE8204082
:101000004FF000064FF000074FF000084FF0000BC4
:1010100021F00701AC46ACE8C009ACE8C009ACE877
:10102000C009ACE8C0098D46704710B50446AFF35F
:1010300000802046BDE81040FFF7D8B84FF0013CD3
:1010400050F8042B51F8043B9A4221D1A2EB0C0337
:10105000934313EACC1317D150F8042B51F8043BF7
:101060009A4215D1A2EB0C03934313EACC130BD194
:1010700050F8042B51F8043B9A4209D1A2EB0C031F
:10108000934313EACC13DBD04FF00000704700BF4E
:10109000D01A01BAB1FA81F101F0180122FA01F077
:1010A000CB40C1F12001DBB2C0B2C01A2CFA01F36F
:1010B000D11A914311EAC311E6D1704701491820B2
:1010C000ABBEFEE72600020070475FEA400C08BF97
:1010D00091F0000F4FEA8C234FEAC12243EA5151AD
:1010E0004FEA1C5018BF00F5F0404FEA300018BF1F
:1010F00041F000415FEA6C5C00F02980BCF1FF3FE9
:1011000008BF40F080407047130C06BF12044FF038
:10111000100C4FF0000C130E04BF12020CF1080C5F
:10112000130F04BF12010CF1040C930F04BF9200C3
:101130000CF1020CD30F04BF52000CF1010C11464C
:101140004FF00002A0F11F00A0EB0C00704711F05F
:10115000004F08BF704731F000413FF4D5AF0B0C92
:1011600006BF09044FF0100C4FF0000C0B0E04BF2B
:1011700009020CF1080C0B0F04BF09010CF1040C5F
:101180008B0F04BF89000CF1020CCB0F04BF490088
:101190000CF1010CCCF12003A0EB0C0022FA03F3BC
:1011A00002FA0CF241EA030100F10100704720F05D
:1011B0007F4C80EA030023F07F47ACEB070303F585
:1011C0007C5300F0004003F1FF032DE980494FEA12
:1011D000154B09B44FEA144325EA0B4E24EA0348A1
:1011E0000FF2042606EB132749083E785FEA320225
:1011F00003FB0667C7F5000707FB06F64FEA5437FF
:101200004FEAD64606F1020607FB066CCCF1005CFD
:101210004FEA1C472CEA074C07FB06F40CFB06F5CB
:1012200004EB15464FEA961634BF00204FF00040FD
:101230004FEAD13706FB07FC4FEA1C4C0CFB0BF7BF
:10124000D21B03FB0CF761EB07010CFB0EF7B0EBB5
:10125000074072EB17420CFB08F734BFA2EB0742C2
:10126000B2EB074261EB17414FEA0C444FEA91079A
:1012700006FB07FC4FEA1C4C0CFB0BF7B0EBC7401E
:1012800072EB573203FB0CF734BFA2EBC742B2EB51
:10129000C74261EB57310CFB0EF7B0EBC70072EBA6
:1012A00057720CFB08F734BFA2EBC702B2EBC702C0
:1012B00061EB5771039F4FEA816141EA921104EBA0
:1012C000CC044FEAD1374FEA826206FB07FC42EAC0
:1012D00090124FEA80604FEA1C4C0CFB0BF7D21BBC
:1012E00003FB0CF761EB07010CFB0EF7B0EB0740BB
:1012F00072EB17420CFB08F734BFA2EB0742B2EBCC
:10130000074261EB17414FEA8C554FEA910704EB16
:101310009C2406FB07FC4FEA1C4C0CFB0BF7B0EBC4
:10132000C74072EB573203FB0CF734BFA2EBC74246
:10133000B2EBC74261EB57310CFB0EF7B0EBC700C5
:1013400072EB57720CFB08F734BFA2EBC702B2EB8B
:10135000C70261EB577115EB4C254FEA816141EAF9
:1013600092114FEA82624FEAD13742EA901206FBAD
:1013700007FC44F100044FEA80604FEA1C4C0CFB70
:101380000BF7D21B03FB0CF761EB07010CFB0EF70D
:10139000B0EB074072EB17420CFB08F734BFA2EB2F
:1013A0000742B2EB074261EB174115EB1C154FEA00
:1013B000813141EA92414FEA823242EA90424FEA59
:1013C00080304FEA0C7644F1000448EA03434EEAC9
:1013D0000B484FF0000EB2EB080C71EB030724BF73
:1013E000624639464EEB0E0E4FF0000B001852418C
:1013F00049414BEB0B0BB2EB080C71EB03077BF194
:10140000000B24BF624639464EEB0E0E4FF0000B28
:101410000018524149414BEB0B0BB2EB080C71EB3E
:1014200003077BF1000B24BF624639464EEB0E0EDC
:1014300051EA020718BF46F0010616EB0E7655F189
:10144000000254F1000103D5BDE88901BDE8008820
:10145000BDE88901BDE80048B619524141EB0101E0
:10146000A3F10103704780807F7E7D7C7B7A797851
:10147000777676757473727171706F6E6E6D6C6C59
:101480006B6A6A69686867666665646463636261FB
:101490006160605F5F5E5E5D5D5C5C5B5B5A5A597C
:1014A00059585857575656555555545453535252E8
:1014B0005251515050504F4F4F4E4E4D4D4D4C4C40
:1014C0004C4B4B4B4A4A4A49494948484847474789
:1014D00047464646454545444444444343434342C6
:1014E000424242414141002B9C4630D477002BD0F0
:1014F0001CB54FEA370703B44FF010004FF010014E
:10150000BAF1000F06D0BCF1000FDCBF40F00800BC
:1015100040F008014FF000000FBCBDE810400BF197
:10152000010BBBF1010F08BF5FEA170722BF12F1E1
:10153000010211F101014FF0004143F1000300F0FD
:10154000004043EA00007047F9D35708D0E746EA65
:10155000064613F1400F4FEA16461FDD13F1200F28
:10156000DFBF16430A46002120335B42BED0C3F1E1
:10157000200746EA064602FA07F74FEA164646EA09
:101580000706C3F1200722FA03F201FA07F721FA4E
:1015900003F14FF0000342EA0702A7E746EA02061A
:1015A00046EA06464FEA164646EA0106BCBF46EA48
:1015B0000646360C4FF000034FF000024FF00001DA
:1015C00094E72DE9804C9A46934670B491E8380030
:1015D00007C831EA400C48BF34EA430C03D5FFF793
:1015E000E6FDFFF780FFF0BCBDE8008C2DE9804CE4
:1015F0009A46934670B491E8380007C810F0804FBF
:1016000008BF13F0804F03D100F005F8FFF76BFF20
:10161000F0BCBDE8008C20F07F4780EA030023F097
:101620007F4C07EB0C03A3F57C5300F00040A3F1C3
:10163000FE0392F0000F00F0B38095F0000F00F071
:1016400077802DE901494FEA11404FEA144621EA1B
:10165000004800FB06FC24EA064708FB06F607FBE9
:1016600008F800FB07F718EB06484CEB164C4FEA5E
:10167000124B18EB07484FEA15464CEB174022EA8D
:101680000B4E0BFB06FC25EA06470EFB06F607FB96
:101690000EFE0BFB07F71EEB064E4CEB164C4FF005
:1016A00000061EEB074E4CEB174B18EB0B0840F1F6
:1016B000000018EB0E0B58EB000840F100008F1AE9
:1016C0004FF000013CBFC943661B14BFB5EB040CCF
:1016D00000213CBFC943F61B4FEA17444EEA8E0E69
:1016E00027EA04454FEA1C4704FB07622CEA074C33
:1016F00005FB07F70CFB05F604FB0CFC16EB074695
:1017000042EB174216EB0C4642EB1C421BEB060663
:1017100058EB0202414146EA9E0601D5BDE8018927
:10172000B619524141EB0101A3F10103BDE8018962
:101730004FEA14454FEA114724EA054621EA074CCF
:1017400005FB07F406FB07F70CFB06F105FB0CFC99
:1017500011EB074144EB17444FEA124711EB0C41E0
:1017600044EB1C4422EA074C05FB07F206FB07F793
:101770000CFB06F605FB0CFC16EB074642EB17428A
:1017800016EB0C4642EB1C456A1854F1000148BFA9
:101790007047B619524141EB0101A3F101037047B3
:1017A00095F0000F37D04FEA11424FEA144721EA73
:1017B000024624EA074C02FB07F106FB07F70CFB85
:1017C00006F402FB0CFC14EB074441EB17414FEA13
:1017D000154714EB0C4441EB1C4125EA074C02FB76
:1017E00007F506FB07F70CFB06F602FB0CFC16EBF5
:1017F000074645EB174516EB0C4645EB1C42121904
:1018000051F1000148BF7047B619524141EB010147
:10181000A3F1010370474FEA14454FEA114724EA48
:10182000054621EA074C05FB07F106FB07F70CFB11
:1018300006F24FF0000605FB0CFC12EB074241EBF1
:10184000174112EB0C4251EB1C4148BF70479218F4
:1018500041EB0101A3F10103704770B50446002577
:101860002068806800F0010018B32068806820F0CC
:1018700001002168886000F093FF054613E000F046
:101880008FFF401B02280ED92068806800F00100FD
:1018900048B1A06A40F01000A062E06A40F0010088
:1018A000E062012070BD2068806800F0010000281F
:1018B000E5D10020F6E7000038B5044600250020F9
:1018C00000902068806800F0010078BB2068806884
:1018D00040F0010021688860194800681949B0FB90
:1018E000F1F0009002E00098401E0090009800285F
:1018F000F9D100F055FF054619E000F051FF401BFB
:10190000022814D92068806800F0010078B9A06A24
:1019100040F01000A062E06A40F00100E06200BF09
:10192000002084F8240000BF012038BD05E02068B5
:10193000806800F001000028DFD00020F5E70000FB
:10194000F400002040420F0000BFFEE70346042BD6
:1019500015D007DC7BB1012B0ED0022B0DD0032B51
:1019600012D10BE0202B0BD0212B0AD0222B09D037
:10197000232B09D107E008E007E006E005E004E0DA
:1019800003E002E001E000E000BF00BF002070477C
:101990000020704710B500220449054805F05FFC9F
:1019A0000449034805F054FC002010BDB80F002086
:1019B000F4060020B80B002070B504460D46214601
:1019C000034805F045FC024805F01EFC002070BDF0
:1019D000F40600202DE9F04104460D4600260A4891
:1019E000D0F8B872D7F8140210B10120BDE8F08128
:1019F0002A462146044805F032FC034805F0B3FCB2
:101A000006463046F2E70000F406002010B57821C3
:101A100000200AF051FA08B9002010BD78210120F9
:101A20000AF04AFA08B90020F7E7782100200AF006
:101A300043FA08B90020F0E70120EEE710B586B0C0
:101A4000044600202060606000F06EF8FFF7DEFFC3
:101A500008B906B010BD00200590049003900290D4
:101A6000019005A800F034F800B9F2E704A800F0EE
:101A70002FF800B9EDE703A800F02AF800B9E8E76D
:101A800002A800F025F800B9E3E701A800F020F86B
:101A900000B9DEE79DF814009DF8101008449DF889
:101AA0000C1008449DF808100844C0B29DF80410BA
:101AB000884200D0CDE79DF814000AF045FE606032
:101AC0009DF80C000AF040FE206000BFC1E7000056
:101AD00070B505460026002400BF1DE064210120EA
:101AE0000AF0EAF908B9002070BD2D2008F040FB8B
:101AF0006006040E4FF480710A4800F043FE01288E
:101B000001D144F00104642100200AF0D5F908B99C
:101B10000020E9E7701CC6B2082EDFDB2C70012024
:101B2000E2E70000000C01407FB500BF1F480068DD
:101B300040F080701D4908601D48006840F00100B9
:101B40001B49086000BF1B4CA515002000900190A8
:101B500002900390009511200190022003906946A5
:101B6000204600F07FFC00BF0022A115204600F0B7
:101B700011FE44F2506008F0FBFA012211022046E7
:101B800000F008FE1E2008F0F3FA00BF00200090CD
:101B90000190029003900095019001200290694607
:101BA000204600F05FFC00BF7FBD0000FCED00E0C0
:101BB000001000E0000C01402DE9F04397B0022135
:101BC0002E4802F0E9FD87B20CA808F006FB054696
:101BD0001DB1119800F26C7000E0002080460020DA
:101BE0000B900BA808F054FB044634B19DF82C0070
:101BF00000F0800008B1012000E0002081460026AE
:101C000015B1B8F5FD6F00DA0126B9F1000F00D06B
:101C100001261EB32C216846FEF7C7FD7D200590E6
:101C2000092004901B2003900D2002903520019084
:101C30001E200090684608F037FB58B108F0BBFA48
:101C40004DF2213202210D4802F0B2FD0CA008F045
:101C50009FF802E010A008F09BF80BE04DF2213055
:101C6000874204D002460221044802F0A1FD0FA0E1
:101C700008F08EF817B0BDE8F083000030060020B1
:101C800044533332333120736574204F4B20287313
:101C9000616665292E0000004453333233312073CE
:101CA0006574204641494C21000000004453333202
:101CB0003331206B656570206578697374696E6770
:101CC0002E000000704772B600BFFEE770B50A48EC
:101CD0000468001D0568001D0668344454B10822DC
:101CE0000649204603F04FFE0422044910312846DD
:101CF00003F049FE70BD0000E8F7FF1FBE000020A2
:101D000038B5024600230020009000BF92F824005E
:101D1000012801D1022038BD012082F8240000BF33
:101D20004868072812D21068406B0C79641E04EBD7
:101D300084051F24AC40A0430D796D1E05EB85057D
:101D40000C68AC4020431468606327E048680D28A5
:101D500012D21068006B0C79E41F04EB84051F2479
:101D6000AC40A0430D79ED1F05EB85050C68AC4038
:101D700020431468206311E01068C06A0C790D3CA0
:101D800004EB84051F24AC40A0430D790D3D05EB09
:101D900085050C68AC4020431468E06208680A2896
:101DA00012D31068C0680C780A3C04EB4405072481
:101DB000AC40A0430D780A3D05EB45058C68AC406E
:101DC00020431468E0600FE0106800690C7804EBB1
:101DD00044050724AC40A0430D7805EB45058C680D
:101DE000AC402043146820610868102802D00868BD
:101DF000112827D1174C1068A0421ED110688068A6
:101E000000F40000F0B91068806840F40000146825
:101E1000A0600868102815D10F4800680F4CB0FB6F
:101E2000F4F000EB80004000009002E00098401EBB
:101E3000009000980028F9D104E0906A40F020005A
:101E40009062012300BF002082F8240000BF1846E2
:101E500061E7000000240140F400002040420F0030
:101E600001460868C06C70472DE9F0410446002720
:101E700000250026A84614B90120BDE8F081A0681D
:101E800010B1207D00B100BFA06A30B90020E0622F
:101E900084F82400204600F089F82046FFF7DDFC96
:101EA0000746A06A00F01000002873D1002F71D1FE
:101EB000A06A20F4885040F00200A062E1696068E6
:101EC0000843217B40EA41000643A068B0F5807FCB
:101ED00002D0A068012802D14FF4807000E00020F9
:101EE0000543207D012811D1207B38B9A069401E0F
:101EF0004FF4006141EA4030054307E0A06A40F03A
:101F00002000A062E06A40F00100E06220684068C2
:101F100020F469402843216848602068806821498E
:101F20000840304321688860A068B0F5807F02D007
:101F3000A068012802D14FF4807000E00020B0F5C5
:101F4000807F03D1208A401E4FEA00582068C06A73
:101F500020F4700040EA08002168C86220688068A8
:101F600011490840B04208D10020E062A06A20F088
:101F7000020040F00100A06211E0A06A20F002001F
:101F800040F01000A062E06A40F00100E06201272A
:101F900005E0FFE7A06A40F01000A0620127384684
:101FA0006BE70000FDF7E1FFFE0E1FFF10B586B0E6
:101FB0000446002002900390049005901349206885
:101FC000884221D100BF1248806940F40070104956
:101FD00088610846806900F40070019000BF00BF6E
:101FE00000BF0846806940F00400886108468069A7
:101FF00000F00400019000BF00BF03200290039096
:1020000002A9044800F02EFA06B010BD00240140D9
:102010000010024000080140F8B504460D460026B5
:1020200000200090002700F0BBFB06462068806877
:1020300000F4807050B1A06A40F02000A06200BFA0
:10204000002084F8240000BF0120F8BD206840680B
:1020500000F4807020BB2068C06A00F47000F8B9FA
:1020600017E0681CA8B125B100F09AFB801BA842BC
:102070000FD92068006800F0020050B9A06A40F053
:102080000400A06200BF002084F8240000BF0320E9
:10209000DBE72068006800F002000028E1D053E090
:1020A000022001F00DFF38490968B1FBF0F021680A
:1020B0000969364A114091B92168C96892111140E5
:1020C00069B921680969324A114031B92168C96882
:1020D0009211114009B9142117E0292115E0216856
:1020E00009692B4A114021B92168C9689211114030
:1020F00041B121680969274A114029B92168C96895
:10210000114009B9542100E0FC2100FB01F718E05F
:10211000681C98B125B100F043FB801BA8420DD983
:102120000098B8420AD2A06A40F00400A06200BF42
:10213000002084F8240000BF032086E70098401C9C
:1021400000900098B842E3D36FF012002168086055
:10215000A06A40F40070A0622068806800F46020EB
:10216000B0F5602F0DD1207B58B9A06A20F48070A3
:10217000A062A06A00F4805018B9A06A40F0010083
:10218000A062002061E70000F400002024499224AE
:10219000922449124992240070B50446002500BFDC
:1021A00094F82400012801D1022070BD012084F898
:1021B000240000BF2046FFF77FFB0546002D77D1A6
:1021C000A06A40F20121884340F48070A0623C493B
:1021D0002068884208D13B48006800F4702008B9A4
:1021E000012002E0002000E0012078B1A06A20F484
:1021F0008010A0622068406800F4806000B3A06A8C
:1022000020F4005040F48050A06219E0A06A40F42D
:102210008010A0622B49091F2068884203D02849FA
:102220002068884204D12748006800F4806000E0FC
:10223000002028B1A06A20F4005040F48050A06231
:10224000A06A00F4805020B1E06A20F00600E0624D
:1022500001E00020E06200BF002084F8240000BFFD
:10226000C01E216808602068806800F46020B0F516
:10227000602F16D112492068884208D111480068A1
:1022800000F4702008B9012002E0002000E00120E5
:1022900038B12068806840F4A000216888600CE0B4
:1022A00006E02068806840F480102168886004E0BF
:1022B00000BF002084F8240000BF284675E7000016
:1022C000002801400424014070B50446002500BFE9
:1022D00094F82400012801D1022070BD012084F867
:1022E000240000BF2046FFF7B8FA05462DB9A06AC2
:1022F00020F4885040F00100A06200BF002084F864
:10230000240000BF2846E8E770B5044600F048FA0C
:1023100006462546681C10B104480078054400BFF5
:1023200000F03EFA801BA842FAD370BDF0000020F6
:102330002DE9F04102460B46002080E0012787404E
:1023400007EA0301002979D0404F4FEA900C57F873
:102350002C4087074FEA177C0F2707FA0CF73C4001
:102360003B4FBA4201D100270FE03A4FBA4201D1A8
:1023700001270AE0384FBA4201D1022705E0374F62
:10238000BA4201D1032700E004274FEA807C4FEADC
:102390001C7C07FA0CF7A74231D1314F3F688F43BD
:1023A000DFF8BCC0CCF800700CF104073F688F4325
:1023B0000CF1040CCCF80070294F0C373F688F43A8
:1023C000DFF89CC00CF10C0CCCF80070ACF10407E9
:1023D0003F688F43ACF1040CCCF8007087074FEADC
:1023E000177C0F2707FA0CF4184F4FEA900C57F898
:1023F0002CC02CEA040C4FEA900847F828C0FF29AB
:1024000001D8174600E0171D3D46FF2901D8870077
:1024100002E0A0F10807BF003E462F684FF00F0C06
:102420000CFA06FC27EA0C074FF0040C0CFA06FC29
:1024300047EA0C072F60D7688F43D760401C23FA08
:1024400000F7002F7FF47AAFBDE8F081080001406B
:1024500000080140000C0140001001400014014040
:10246000000401402DE9F8470346002294466EE13E
:102470004FF0010808FA02F4D1F8008008EA0400DD
:10248000A0427DD1DFF8DCA2D1F80480A8EB0A09D4
:10249000D0453AD014DCB8F1030F50D009DCB8F1C4
:1024A000000F31D0B8F1010F1CD0B8F1020F49D1A3
:1024B00020E0B8F1110F18D0B8F1120F42D11EE090
:1024C000B9F5881F25D006DCB9F5803F20D0B9F5D5
:1024D000801F37D11AE0B9F5001F18D0B9F5041FD5
:1024E00030D117E0D1F80CC02DE0D1F80C8008F104
:1024F000040C28E0D1F80C8008F1080C23E0D1F896
:102500000C8008F10C0C1EE000BF00BF00BF00BF34
:1025100000BF00BFD1F80880B8F1000F02D14FF022
:10252000040C0BE0D1F80880B8F1010F03D14FF093
:10253000080C1C6102E04FF0080C5C6103E04FF0F6
:10254000000C00E000BF00BFFF2801D8984601E062
:1025500003F104084646FF2802D84FEA820803E048
:10256000A2F108084FEA88084746D6F800804FF0E5
:102570000F0909FA07F928EA09080CFA07F900E037
:1025800088E048EA0908C6F80080D1F8048008F01D
:102590008058B8F1805F7DD100BFDFF8CC81D8F8DA
:1025A000188048F00108DFF8C091C9F81880C846C3
:1025B000D8F8188008F00108CDF8008000BF00BFEF
:1025C0004FEAB9384FEA920958F829504FEA827811
:1025D0004FEA18794FF00F0808FA09F825EA0805BC
:1025E000DFF88881434502D14FF0000816E0DFF89C
:1025F0008081434502D14FF001080FE0DFF874817C
:10260000434502D14FF0020808E0DFF86C814345F2
:1026100002D14FF0030801E04FF004084FEA82793D
:102620004FEA197908FA09F848EA0505DFF84C81FC
:102630004FEA920948F82950D1F8048008F480182C
:10264000B8F5801F0AD1DFF83881D8F8008048EA51
:102650000008DFF82C91C9F8008009E0DFF820813C
:10266000D8F8008028EA0008DFF81491C9F8008043
:10267000D1F8048008F40018B8F5001F10D1DFF875
:10268000008108F10408D8F8008048EA0008DFF863
:10269000F09000E05AE009F10409C9F800800DE06B
:1026A000DFF8DC8008F10408D8F8008028EA000888
:1026B000DFF8CC9009F10409C9F80080D1F8048052
:1026C00008F40038B8F5003F0ED1DFF8B480A8F167
:1026D0000408D8F8008048EA0008DFF8A490A9F1BF
:1026E0000409C9F800800DE0DFF89480A8F104081F
:1026F000D8F8008028EA0008DFF88490A9F10409DE
:10270000C9F80080D1F8048008F48038B8F5803F1B
:102710000ED1DFF86C80A8F10808D8F8008048EAEC
:102720000008DFF85C90A9F10809C9F800800DE005
:10273000DFF84C80A8F10808D8F8008028EA0008E3
:10274000DFF83C90A9F10809C9F80080521CD1F8C3
:10275000008028FA02F8B8F1000F7FF489AEBDE8D6
:10276000F88700000000111000100240000801402E
:10277000000C01400010014000140140080001401D
:1027800008040140024693680B400BB1012000E0B1
:10279000002070470AB1016101E00B04036170473A
:1027A0000148006870470000E80000200148006808
:1027B00070470000E8F7FF1F70B504460CB9012010
:1027C00070BD94F83D0028B9002084F83C002046F4
:1027D00000F048FB242084F83D002068006820F0C9
:1027E0000100216808602068006840F4004021680A
:1027F00008602068006820F400402168086001F04B
:1028000041FD05465C496068884206D85B488542C0
:1028100001D2012007E0002005E05948854201D29D
:10282000012000E00020012800D1C9E75548B5FB90
:10283000F0F62068406820F03F003043216848608F
:102840004D496068884201D8701C07E04FF49670CB
:1028500070434FF47A71B0FBF1F0401C2168096AB3
:1028600021F03F01084321680862434960688842BB
:1028700014D8681E61684900B0FBF1F0401CC0F339
:102880000B00042801D204203DE0681E6168490065
:10289000B0FBF1F0401CC0F30B0034E0A06838B985
:1028A000681E616801EB4101B0FBF1F0401C0AE0D9
:1028B000681E616801EBC10202EB0111B0FBF1F08F
:1028C000401C40F48040C0F30B0008B901201AE01E
:1028D000A06848B9681E616801EB4101B0FBF1F0E6
:1028E000401CC0F30B000CE0681E616801EBC102E4
:1028F00002EB0111B0FBF1F0401CC0F30B0040F4FF
:10290000804040F400402168C9694CF6FF72914351
:1029100008432168C861D4E90701084321680968B0
:1029200021F0C001084321680860D4E9031008437E
:102930002168896848F2FF32914308432168886022
:10294000D4E9050108432168C96821F0FF01084363
:102950002168C8602068006840F0010021680860B4
:1029600000202064202084F83D000020206384F8AB
:102970003E0000BF24E70000A086010080841E0006
:1029800000093D0040420F002DE9FC4704468946FE
:10299000174698460A9E00200190FFF701FF054662
:1029A00094F83D0020286FD119230122CD492046FB
:1029B000009502F094FE10B10220BDE8FC8700BF34
:1029C00094F83C00012801D10220F6E7012084F8A8
:1029D0003C0000BF2068006800F0010028B92068B2
:1029E000006840F00100216808602068006820F459
:1029F000006021680860222084F83D00102084F8DF
:102A00003E00002020646762A4F82A80608D208543
:102A1000B548E0622B4632464946204602F030FD7A
:102A200008B10120C9E7208D88B900BF00200090BF
:102A300020684069009020688069009000BF00BF56
:102A40002068006840F40070216808604BE0208D29
:102A500001281AD12068006820F48060216808608D
:102A600072B600BF00200090206840690090206886
:102A70008069009000BF00BF2068006840F40070CB
:102A80002168086062B62EE029E1208D022819D164
:102A90002068006840F400602168086072B600BFDA
:102AA00000200090206840690090206880690090B4
:102AB00000BF00BF2068006820F4806021680860C3
:102AC00062B610E02068006840F480602168086009
:102AD00000BF002000902068406900902068806955
:102AE000009000BF00BFEBE0208D03287ED8208D32
:102AF000012815D12A463146204602F0CCFE08B105
:102B000001205AE720680069616A0870606A401C09
:102B10006062208D401E2085608D401E6085CFE064
:102B2000208D02282CD13346002270492046009582
:102B300002F0D5FD08B101203FE772B620680068B9
:102B400040F400702168086020680069616A0870BC
:102B5000606A401C6062208D401E2085608D401E92
:102B6000608562B620680069616A0870606A401C0E
:102B70006062208D401E2085608D401E60859FE034
:102B80003346002259492046009502F0A8FD08B1BD
:102B9000012012E72068006820F480602168086046
:102BA00072B620680069616A0870606A401C6062E1
:102BB000208D401E2085608D401E60854C48006839
:102BC0001921B0FBF1F04FF47A71B0FBF1F0C0EBDA
:102BD000C00000EB8000019000BF0198401E0190F2
:102BE0000198A8B900202063202000E038E084F894
:102BF0003D00002084F83E00206C40F0200020645E
:102C000062B600BF002084F83C0000BF0120D4E67B
:102C100020684069C0F380000028DED0206800688A
:102C200040F400702168086020680069616A0870DB
:102C3000606A401C6062208D401E2085608D401EB1
:102C4000608562B620680069616A0870606A401C2D
:102C50006062208D401E2085608D401E60852FE0C3
:102C60002A463146204602F016FE08B10120A4E6AD
:102C700020680069616A0870606A401C6062208D8B
:102C8000401E2085608D401E608520684069C0F32D
:102C90008000A8B1208D032805D12068006820F4A9
:102CA00080602168086020680069616A0870606A55
:102CB000401C6062208D401E2085608D401E608516
:102CC000208D00287FF410AF202084F83D000020E4
:102CD00084F83E0000BF84F83C0000BF6DE602208F
:102CE0006BE60000020010000000FFFF040001007E
:102CF000F40000202DE9F8430446894616461F4695
:102D0000DDF82080FFF74CFD054694F83D002028B3
:102D10007ED11923012251492046009502F0DFFCA3
:102D200010B10220BDE8F88300BF94F83C000128F0
:102D300001D10220F6E7012084F83C0000BF2068A2
:102D4000006800F0010028B92068006840F0010028
:102D5000216808602068006820F40060216808602D
:102D6000212084F83D00102084F83E0000202064DB
:102D700066626785608D20853948E0622B46424651
:102D80004946204602F018FC08B10120CAE700BFFE
:102D900000200090206840690090206880690090C1
:102DA00000BF00BF44E02A464146204602F0B8FD7D
:102DB00050B1206C042805D12068006840F40070F0
:102DC000216808600120ADE7606A00782168086129
:102DD000606A401C6062608D401E6085208D401ED0
:102DE000208520684069C0F3800070B1208D60B1FB
:102DF000606A007821680861606A401C6062608DCA
:102E0000401E6085208D401E20852A46414600E0F8
:102E100022E0204602F030FC50B1206C042805D19D
:102E20002068006840F4007021680860012079E79C
:102E3000208D0028B7D12068006840F40070216818
:102E40000860202084F83D00002084F83E0000BF88
:102E500084F83C0000BF65E7022063E70200100031
:102E60000000FFFF10B586B00446002002900390DA
:102E7000049005902B492068884225D100BF2A483C
:102E8000806940F00800284988610846806900F0A0
:102E90000800019000BF00BFC020029012200390E4
:102EA0000320059002A92148FFF7DCFA00BF1E4865
:102EB000C06940F400101C49C8610846C06900F4AC
:102EC0000010019000BF2AE019492068884226D1ED
:102ED00000BF1548806940F0080013498861084622
:102EE000806900F00800019000BF00BF4FF440600F
:102EF0000290122003900320059002A90B48FFF7CF
:102F0000B1FA00BF0848C06940F480000649C861B2
:102F10000846C06900F48000019000BF00BF06B001
:102F200010BD00000054004000100240000C0140A1
:102F300000580040034800680349097808440149E3
:102F400008607047E8000020F000002010B5084835
:102F5000006840F0100006490860032000F0A8F85F
:102F60000F2000F007F800F02BF8002010BD000043
:102F70000020024070B504460E4800784FF47A7184
:102F8000B1FBF0F00C490968B1FBF0F5284602F0FE
:102F90003BFA08B1012070BD102C07D20022214657
:102FA000501E00F047F80548046001E00120F2E7F8
:102FB0000020F0E7F0000020F4000020EC000020EA
:102FC00008B500BF1148806940F001000F498861D1
:102FD0000846806900F00100009000BF00BF00BFFC
:102FE0000846C06940F08050C8610846C06900F0DA
:102FF0008050009000BF00BF00BF0549486820F026
:10300000E06040F00070486000BF08BD0010024062
:103010000000014001460846002809DB00F01F03BC
:1030200001229A4043099B0003F1E023C3F80021E9
:1030300000BF70472DE9F05F80460D461646002719
:1030400006F0DAFC074639462A46334601F0070007
:10305000C0F1070ABAF1040F02D94FF0040A01E0E7
:10306000C0F1070AD14600F1040ABAF1070F02D2F3
:103070004FF0000A01E0A0F1030AD4464FF0010A24
:103080000AFA09FAAAF1010A0AEA020A0AFA0CFA89
:103090004FF0010B0BFA0CFBABF1010B0BEA030B2E
:1030A0004AEA0B042146404606F0AEFCBDE8F09F1C
:1030B00000BF00F00702064B19684FF6FF031940E6
:1030C000044B0B4343EA0221014B196000BF7047D8
:1030D0000CED00E00000FA0570B505460C4604F062
:1030E0008000802808D104F0070000EB800605F17D
:1030F000100000EBC60105E004EB840605F5A8709E
:1031000000EBC6011AB900200873CB8004E001204F
:1031100008730B81180C4881002070BD704770B592
:1031200004460D4605EB850304F1100101EBC301D4
:103130004A692946D4F8D40204F022FC70BD70B567
:1031400004460D4605EB850304F5A87101EBC301A8
:103150004A692946D4F8D40204F092FC70BD70B5D7
:1031600004460E4606F0800080280AD106F00700CB
:1031700000EB800104F1100000EBC1050120687034
:1031800009E006F0070000EB800104F5A87000EBF1
:10319000C1050020687006F00700287000BF94F891
:1031A0009002012801D1022070BD012084F8900214
:1031B00000BF2946206805F01DFB00BF002084F8F1
:1031C000900200BF00BFEFE770B504460E4606F060
:1031D0000F002179884201D9012070BD06F08000DE
:1031E00080280AD106F0070000EB800104F11000EE
:1031F00000EBC1050120687009E006F0070000EB54
:10320000800104F5A87000EBC10500206870002063
:10321000A87006F00700287000BF94F890020128FB
:1032200001D10220D9E7012084F8900200BF29468D
:10323000206805F03BFC00BF002084F8900200BF2E
:1032400000BFCAE72DE9F04105460C46174607F4D2
:103250008040002850D02868B0F85010207801EB4A
:10326000C000801C296801F5806131F81000C0F3AE
:103270000906A069B04203D3A069801BA06101E0E8
:103280000020A061A069A8B900BF22785200296877
:1032900031F812104BF68F7201EA020080F40050F0
:1032A00040F4004141F0800123785B002A6822F855
:1032B000131000BF07F04000A8B100BF00BF227884
:1032C0005200296831F8121048F68F7201EA0200A4
:1032D00040F4004141F0C00123785B002A6822F8E5
:1032E000131000BF00BF002E55D0228961693346FC
:1032F000286806F0B3F94EE02868B0F8501020783E
:1033000001EBC000801D296801F5806131F81000D3
:10331000C0F30906A069B04203D3A069801BA06175
:1033200001E00020A061A069A8B900BF2278520086
:10333000296831F812104BF68F7201EA020080F40E
:10334000005040F4004141F0800123785B002A687E
:1033500022F8131000BF07F04000A8B900BF00BF5B
:1033600022785200296831F8121048F68F7201EA6B
:10337000020040F4004141F0C00123785B002A685C
:1033800022F8131000BF00BF2EB162896169334675
:10339000286806F063F93046BDE8F0812DE9F04772
:1033A00005460C46904608F0400000287ED028686C
:1033B000B0F85010207801EBC000801C296801F59E
:1033C000806131F81000C0F30907A069B84203D941
:1033D000A069C01BA06101E00020A061A0690028D5
:1033E0007ED100BF6078C0B900BF29682A68B2F8F2
:1033F000502011442278022303EBC20201F58063BE
:1034000003EB420000BF0288C2F309020280028877
:1034100042F40042028000BF13E06078012810D11E
:1034200000BF28682A68B2F850201044227802238E
:1034300003EBC20200F5806303EB420100220A8025
:1034400000BF00BF00BF29686078F8B900BF2B68D3
:10345000D5F800C0BCF850C0634494F800C04FF0E9
:10346000060909EBCC0C03F5806909EB4C0000BFA1
:10347000B0F800C0CCF3090CA0F800C0B0F800C050
:103480004CF4004CA0F800C000BF12E060780128A6
:103490000FD12868B0F8500001442078062303EBD0
:1034A000C00001F5806303EB400200E0B7E00020BC
:1034B000108000BF21782846FFF731FE08F48040D5
:1034C000002816D000BF00BF22785200296831F8CA
:1034D000121048F68F7201EA020040F4004100E049
:1034E00008E041F4814123785B002A6822F8131038
:1034F00000BFD7E108F48040A8B100BF00BF227828
:103500005200296831F8121048F68F7201EA020061
:1035100040F4004141F4814123785B002A6822F89D
:10352000131000BF00BF94F824000128E1D16069A6
:1035300038446061E0693844E0612169206A88426A
:1035400004D32669206A801B20620BE0206A20B920
:103550003E46002084F8240004E0002084F8240083
:10356000266A206200BF6078E8BB00BF2A6829682D
:10357000B1F850100A442178022303EBC10102F58F
:10358000806303EB4101084600BF0388C3F30903CE
:1035900003803E2E10D900BF710906F01F0303B946
:1035A000491E03884FF4004C4CEA812C1FFA8CFC16
:1035B00043EA0C03038014E026B9038843F4004374
:1035C00003800EE000BF710806F0010303B1491C3F
:1035D00003884FF6FF7C0CEA812C43EA0C0303803E
:1035E00000BF00BF13E0FFE7607801280FD100BFE4
:1035F00028682A68B2F8502010442278022303EB8E
:10360000C20200F5806303EB42010E8000BF00BFE1
:10361000B3B222896169286806F04FF842E1286850
:10362000B0F85010207801EBC000801D296801F52A
:10363000806131F81000C0F30907A069B84203D3D4
:10364000A069C01BA06101E00020A061A069002862
:103650007ED100BF6078C0B900BF29682A68B2F87F
:10366000502011442278022303EBC20201F580634B
:1036700003EB420000BF0288C2F309020280028805
:1036800042F40042028000BF13E06078012810D1AC
:1036900000BF28682A68B2F850201044227802231C
:1036A00003EBC20200F5806303EB420100220A80B3
:1036B00000BF00BF00BF29686078F8B900BF2B6861
:1036C000D5F800C0BCF850C0634494F800C04FF077
:1036D000060909EBCC0C03F5806909EB4C0000BF2F
:1036E000B0F800C0CCF3090CA0F800C0B0F800C0DE
:1036F0004CF4004CA0F800C000BF10E06078012836
:103700000DD12868B0F8500001442078062303EB5F
:10371000C00001F5806303EB40020020108000BF71
:1037200021782846FFF7FBFC08F48040002816D1DA
:1037300000BF00BF22785200296831F8121048F605
:103740008F7201EA020040F4004141F4814100E03F
:1037500006E023785B002A6822F8131000BFA1E07E
:1037600008F48040A8B900BF00BF22785200296841
:1037700031F8121048F68F7201EA020040F400415D
:1037800041F4814123785B002A6822F8131000BFBE
:1037900000BF94F8240001287ED16069384460613C
:1037A000E0693844E0612169206A884204D32669CF
:1037B000206A801B20620BE0206A20B93E46002070
:1037C00084F8240004E0266A0020206284F82400A3
:1037D00000BF2A68607870BB00BFD5F800C02968B8
:1037E000B1F850108C4421784FF0060909EBC10163
:1037F0000CF5806909EB4101084600BFB0F8009064
:10380000C9F30909A0F800903E2E15D900BF71092F
:1038100006F01F09B9F1000F00D1491EB0F8009061
:103820004FF4004A4AEA812A1FFA8AFA49EA0A0949
:10383000A0F800901BE01CE036B9B0F8009049F405
:103840000049A0F8009012E000BF710806F00109DD
:10385000B9F1000F00D0491CB0F800904FF6FF7A84
:103860000AEA812A49EA0A09A0F8009000BF00BFCD
:103870000FE0607801280CD12868B0F850000244AD
:103880002078062101EBC00002F5806101EB4003C6
:103890001E8000BFB3B200E004E06289616928685D
:1038A00005F00BFF00BF22785200296831F8121092
:1038B00048F6BF7201EA020080F0100080F020009C
:1038C00040F4004141F0800223785B00296821F830
:1038D000132000BF0020BDE8F087024601F007007A
:1038E00000EB800302F5A87000EBC300C0697047CD
:1038F0002DE9F04705460E4690461F464FF0000959
:1039000006F0800080280AD106F0070000EB800155
:1039100005F1100000EBC1040120607009E006F021
:10392000070000EB800105F5A87000EBC104002042
:10393000607006F007002070C4F81080E770022F56
:1039400001D10020207100BF95F89002012802D11A
:103950000220BDE8F087012085F8900200BF2146D3
:10396000286804F0EBFC00BF002085F8900200BF3F
:103970004846EEE72DE9F04105460E4617469846C3
:1039800006F0070000EB800105F5A87000EBC1040C
:103990006761C4F818800020E061607006F00700DD
:1039A00020702146286805F01CF90020BDE8F08150
:1039B00070B504460D4605F007002179884201D90B
:1039C000012070BD05F0800080280AD105F00700B5
:1039D00000EB800104F1100000EBC10601207070C3
:1039E00007E005EB850104F5A87000EBC106002097
:1039F00070700120B07005F00700307000BF94F8BF
:103A00009002012801D10220DBE7012084F8900216
:103A100000BF3146206805F0B6F805F0070020B970
:103A200004F52671206805F03EF800BF002084F8F8
:103A3000900200BF00BFC4E72DE9F04105460E46E5
:103A400090461F4606F0070000EB800105F11000CC
:103A500000EBC104C4F81480A761012084F824009D
:103A600027620020E0610120607006F007002070EE
:103A70002146286805F0B5F80020BDE8F0817FB543
:103A80000446206805F0E6FD064606F40040B0F561
:103A9000004F03D1204602F07FFD7FBD06F4806019
:103AA000B0F5806F10D12068B0F844004FF6FF31B8
:103AB00008402168A1F84400204600F087F9002161
:103AC000204600F0A3F9E8E706F48040B0F5804F07
:103AD00009D12068B0F844004BF6FF710840216816
:103AE000A1F84400D9E706F40050B0F5005F09D111
:103AF0002068B0F844004DF6FF7108402168A1F835
:103B00004400CAE706F48050B0F5805F1ED12068FB
:103B1000B0F840004FF6FB7108402168A1F8400062
:103B20002068B0F840004FF6F77108402168A1F80E
:103B30004000204600F05CF92068B0F844004EF6E2
:103B4000FF7108402168A1F84400A6E706F4006070
:103B5000B0F5006F56D1002507E06900206830F805
:103B600011002DF81500681CC5B2082DF5D320688A
:103B7000B0F8400040F001002168A1F84000206842
:103B8000B0F840004FF6FE7108402168A1F84000EF
:103B900000BF2068B0F8440000F480600028F8D02E
:103BA0002068B0F844004FF6FF3108402168A1F8C2
:103BB0004400002507E03DF815006A00216821F85F
:103BC0001200681CC5B2082DF5D32068B0F840007B
:103BD00040F008002168A1F840002068B0F84400D7
:103BE0004FF2FF7108402168A1F844002068B0F846
:103BF000400040F004002168A1F84000204600F099
:103C000047F94AE706F40070B0F5007F0CD1206850
:103C1000B0F844004FF6FF5108402168A1F8440075
:103C2000204600F0ECF838E706F48070B0F5807FAD
:103C300009D12068B0F844004FF6FF6108402168C0
:103C4000A1F8440029E700BF27E770B504460CB986
:103C5000012070BD94F8910228B9002084F89002E8
:103C6000204600F091F8032084F891020021617150
:103C7000206804F00EFF94E80F0004F0B7FD20B1B7
:103C8000022084F891020120E3E70021206805F07A
:103C90000AFD20B1022084F891020120D9E7002515
:103CA0002AE0012105EB850204F1100000EBC200BF
:103CB000417005EB850104F1100000F8315000213E
:103CC00005EB850200EBC200C17005EB850204F133
:103CD000100000EBC200016105EB850204F1100049
:103CE00000EBC200416105EB850204F1100000EB1E
:103CF000C2008161681CC5B22079A842D1DC0025D0
:103D00002AE0002105EB850204F5A87000EBC20053
:103D1000417005EB850104F5A87000F831500021D1
:103D200005EB850200EBC200C17005EB850204F5CE
:103D3000A87000EBC200016105EB850204F5A870D4
:103D400000EBC200416105EB850204F5A87000EBB1
:103D5000C2008161681CC5B22079A842D1DC94E818
:103D60000F0004F08BFE20B1022084F891020120A4
:103D70006FE700206073012084F89102206804F04E
:103D80007AFE002065E7000038B504460D4920683A
:103D9000884215D100BF0C48C06940F400000A49B0
:103DA000C8610846C06900F40000009000BF00BF71
:103DB000002211461420FFF73DF91420FFF72AF9DD
:103DC00038BD0000005C00400010024070B50446A1
:103DD0000125A079022801D0FDF775FF2946D4F806
:103DE000D40203F081FFD4F8D40203F033FF70BD96
:103DF00010B50446D4F8D40203F05AFF10BD10B534
:103E00000446D4F8D40203F05EFF10BD70B504463A
:103E10000D4600BF94F89002012801D1022070BD28
:103E2000012084F8900200BF65732946206805F0E0
:103E30003DFC00BF002084F8900200BF00BFEEE709
:103E400010B5044604F52671D4F8D40203F063FFDC
:103E500010BD10B5044600BF94F89002012801D1AE
:103E6000022010BD012084F8900200BF206805F0F8
:103E7000E0FB01212046FFF751F9206804F0F8FD2E
:103E800000BF002084F8900200BF00BFE9E70000F7
:103E900010B50446D4F8D40203F096FFA07A28B1F6
:103EA0000348006840F006000149086010BD0000AA
:103EB00010ED00E0012001490862704700000E4249
:103EC0002DE9F04706464FF00008002500270024A2
:103ED000A146012E31D0022E56D0102E5FD132488D
:103EE0004468006800F0807008B33048C4F3834130
:103EF000475C04F4803078B12B484068C0F3404000
:103F00002B4911F8008004F4803040B12948B0FBFF
:103F1000F8F000FB07F502E0274807FB00F5224810
:103F2000406800F48000B0F5800F01D1A94603E09D
:103F300068000321B0FBF1F932E01B48046A04F485
:103F40004070B0F5807F05D104F0020010B14FF44D
:103F5000004918E004F44070B0F5007F07D1124822
:103F6000406A00F0020010B149F640490BE004F449
:103F70004070B0F5407F06D10B48006800F4003077
:103F800008B14FF224490BE000F08CF9064949686A
:103F9000C1F38131491C4900B0FBF1F900E000BFD9
:103FA00000BF4846BDE8F0870010024032CB000851
:103FB00042CB000800127A0000093D00F8B5044623
:103FC00000260025207800F0010000286BD0002793
:103FD0004348C06900F0805070B900BF4048C069D4
:103FE00040F080503E49C8610846C06900F08050EA
:103FF000009000BF00BF01273A48006800F48070BD
:10400000B0B93848006840F4807036490860FEF75F
:10401000C7FB064606E0FEF7C3FB801B642801D9F8
:104020000320F8BD2F48006800F480700028F2D00B
:104030002B48006A00F440752DB3A08800F440704E
:10404000A84220D02648006A20F440750120264965
:104050000860002008602248056205F0010090B168
:10406000FEF79EFB064608E0FEF79AFB801B41F236
:104070008831884201D90320D3E71948006A00F04B
:1040800002000028F0D01648006A20F440706168F1
:10409000084313490862012F04D10846C06920F083
:1040A0008050C86100BF207800F00200022807D1CC
:1040B0000B48406820F44040A16808430849486024
:1040C000207800F01000102807D10548406820F43F
:1040D0008000E1680843024948600020A1E7000031
:1040E00000100240007000404004424270B5044697
:1040F0000D460CB9012070BD5A48006800F0070059
:10410000A8420ED25748006820F0070028435549BE
:1041100008600846006800F00700A84201D00120AE
:10412000E9E7207800F0020002281DD1207800F095
:104130000400042805D14C48406840F4E0604A4936
:104140004860207800F00800082805D146484068FB
:1041500040F46050444948604348406820F0F00013
:10416000A168084340494860207800F0010078B316
:104170006068012806D13C48006800F4003090B91E
:104180000120B8E76068022806D13748006800F0CF
:10419000007040B90120AEE73348006800F002002B
:1041A00008B90120A7E73048406820F003006168A3
:1041B00008432D494860FEF7F3FA064609E0FEF78A
:1041C000EFFA801B41F28831884202D9032092E73E
:1041D00007E02548406800F00C006168B0EB810FF3
:1041E000EDD12048006800F00700A8420ED91D4814
:1041F000006820F0070028431A4908600846006854
:1042000000F00700A84201D0012074E7207800F0F8
:104210000400042807D11448406820F4E060E168F5
:10422000084311494860207800F00800082808D1A8
:104230000D48406820F46050216940EAC1000A49F5
:10424000486000F03FF808494968C1F30311074A84
:10425000515CC8400649086006480068FEF78AFEBF
:10426000002048E7002002400010024044CB000834
:10427000F4000020EC0000200148006870470000B6
:10428000F400002000B5FFF7F7FF04494968C1F3C7
:104290000221034A515CC84000BD000000100240EA
:1042A00054CB000800B5FFF7E7FF04494968C1F3A4
:1042B000C221034A515CC84000BD0000001002400A
:1042C00054CB000870B500210022002400230020F8
:1042D000134D696801F00C05F5B1042D02D0082DCD
:1042E00019D101E00F4819E00F4DC1F38346AB5DD2
:1042F00001F4803555B10A4D6D68C5F340450B4E4C
:10430000725D084D5D43B5FBF2F402E0084D03FB1E
:1043100005F4204602E000BF024800BF00BF70BDA8
:104320000010024000127A0020CB000830CB0008B9
:1043300000093D00F8B504460CB90120F8BD20780D
:1043400000F00100002878D0F848406800F00C0028
:1043500004280CD0F548406800F00C00082811D162
:10436000F248406800F48030B0F5803F0AD1EF4851
:10437000006800F4003000285FD0606800285CD13D
:104380000120DBE700BF6068B0F5803F06D1E74859
:10439000006840F48030E549086028E0606858B95A
:1043A000E248006820F48030E04908600846006870
:1043B00020F4802008601AE06068B0F5A02F0BD1CF
:1043C000DA48006840F48020D84908600846006850
:1043D00040F4803008600AE0D448006820F480305F
:1043E000D24908600846006820F48020086000BFB9
:1043F000606888B1FEF7D4F9054606E0FEF7D0F90B
:10440000401B642801D9032098E7C848006800F4DD
:1044100000300028F2D010E0FEF7C2F9054606E0B1
:10442000FEF7BEF9401B642801D9032086E7BF4888
:10443000006800F400300028F2D1207800F002007B
:10444000022857D1B948406800F00C0050B1B74875
:10445000406800F00C00082818D1B448406800F407
:10446000803098B9B148006800F0020020B120699E
:10447000012801D0012061E7AC48006820F0F80075
:10448000616940EAC100A949086033E02069E8B1E8
:104490000120A7490860FEF783F9054606E0FEF70C
:1044A0007FF9401B022801D9032047E79F48006895
:1044B00000F002000028F2D09C48006820F0F800CC
:1044C000616940EAC1009949086013E000209849F9
:1044D0000860FEF765F9054606E0FEF761F9401B46
:1044E000022801D9032029E79048006800F0020063
:1044F0000028F2D1207800F0080008282DD1A0690A
:10450000B8B101208B490860FEF74AF9054606E07C
:10451000FEF746F9401B022801D903200EE7834825
:10452000406A00F002000028F2D0012002F0ACFA4C
:1045300013E000207F490860FEF732F9054606E0E7
:10454000FEF72EF9401B022801D90320F6E6774832
:10455000406A00F002000028F2D1207800F0040048
:10456000042873D100277148C06900F0805070B9E9
:1045700000BF6E48C06940F080506C49C861084671
:10458000C06900F08050009000BF00BF01276A485A
:10459000006800F48070B0B96748006840F480702B
:1045A00065490860FEF7FCF8054606E0FEF7F8F8F6
:1045B000401B642801D90320C0E65F48006800F46E
:1045C00080700028F2D000BFE068012806D157486B
:1045D000006A40F001005549086227E0E06858B9D8
:1045E0005248006A20F00100504908620846006AFB
:1045F00020F00400086219E0E06805280BD14B4860
:10460000006A40F00400494908620846006A40F028
:10461000010008620AE04548006A20F001004349B1
:1046200008620846006A20F00400086200BFE068E3
:10463000A0B1FEF7B5F8054609E0FEF7B1F8401B5A
:1046400041F28831884202D9032077E622E03748D8
:10465000006A00F002000028EFD012E0FEF7A0F898
:10466000054608E0FEF79CF8401B41F2883188427D
:1046700001D9032062E62D48006A00F002000028FC
:10468000F0D1012F05D12948C06920F08050274979
:10469000C86100BFE069C8B32448406800F00C005E
:1046A000082860D0E069022848D100202049086627
:1046B000FEF776F8054606E0FEF772F8401B022882
:1046C00001D903203AE61948006800F0007000287C
:1046D000F2D1206AB0F5803F07D11448406820F439
:1046E0000030A168084311494860D4E90801084333
:1046F0000E49496821F4741108430C4948600120AF
:104700000B490866FEF74CF8054607E03DE0FEF76A
:1047100047F8401B022801D903200FE60348006830
:1047200000F000700028F2D02FE0000000100240DE
:1047300000004242800442420070004000201449C0
:104740000866FEF72DF8054606E0FEF729F8401B3F
:10475000022801D90320F1E50E48006800F000703E
:104760000028F2D111E0E069012800D1E6E509480E
:10477000466806F48031206A814204D106F4701143
:10478000606A814201D00120D8E50020D6E5000012
:10479000000042420010024010B5034600220020F3
:1047A000024A02EB81021468A0B210BD006C004006
:1047B00010B503460020034800EB810094B204606A
:1047C00010BD0000006C0040F8B505460C461646CA
:1047D0000020009005B10CB90120F8BD0022694607
:1047E000284600F01AF808B10120F6E7287B20706F
:1047F000E87BE070687B6070A87BA0705EB1E078B9
:1048000002F061F9E070607802F05DF96070A07804
:1048100002F059F9A0700020DFE72DE9F04780464B
:104820000C46914600250026AA460027B8F1000F45
:1048300000D014B90120BDE8F087D8F80000406826
:10484000C0F3800008B10120F5E7404602F002FA0B
:1048500005464FF46160B5FBF0F7B5FBF0F100FBE6
:1048600011503C21B0FBF1F060704FF46160B5FB7A
:10487000F0F100FB11503C21B0FBF1F201FB120002
:10488000A070182F39D31820B7FBF0FAB7FBF0F15E
:1048900000FB11702070404602F0D0F90646701CF3
:1048A00018B1AE4201D9761B01E04FF0FF360AEB9A
:1048B0004A00C000C0EB4011C1EB0020A5EB001581
:1048C0002946404602F039FA08B10120B3E7701CCE
:1048D00038B12E443146404602F018FA40B101206A
:1048E000A9E73146404602F011FA08B10120A2E7DB
:1048F0005146404602F0F4F800E02770B9F1000F8D
:104900000BD0207802F0DFF82070607802F0DBF83E
:104910006070A07802F0D7F8A07000208BE700004C
:1049200070B5044600250CB9012070BD607C20B92B
:1049300000202074204600F053F8022060742046C6
:1049400000F058F918B1042060740120EDE720460A
:1049500002F021F918B1042060740120E5E7206815
:10496000406820F0070021684860A06828B11B4813
:10497000006820F00100194908601848001F00680D
:1049800020F46070A16808431449091F086060683A
:10499000401C08B1656809E00120FFF791FA05465F
:1049A0001DB9042060740120BFE76D1EC5F30340EC
:1049B00021688860A8B22168C860204602F008F922
:1049C00018B1042060740120AFE70021E1730121D8
:1049D0006173A173012060740020A6E7306C004071
:1049E00038B504460B492068884212D1FFF762FAB5
:1049F00000BF0948C06940F000600749C861084627
:104A0000C06900F00060009000BF00BF01200349B2
:104A1000086038BD00280040001002403C044242BB
:104A20002DE9F04704460D46904600260027B14682
:104A300004B115B90120BDE8F08700BF207C012832
:104A400001D10220F7E70120207400BF022060742A
:104A5000B8F1000F06D1E978E17369786173A9783C
:104A6000A1730BE0E87802F023F8E073687802F0B5
:104A70001FF86073A87802F01BF8A073A27B617B1B
:104A8000E07B02F001F92073207B2870204602F0C1
:104A9000E1F806464FF46160B6FBF0F9B9F1180F82
:104AA0002FD91820B9FBF0F000EB4000C000C0EB9C
:104AB0004011C1EB0020A6EB00163146204602F063
:104AC0003CF938B10420607400BF0020207400BF9E
:104AD0000120B0E7204602F0B1F80746781C80B10B
:104AE000B7420ED20B4807443946204602F00EF971
:104AF00038B10420607400BF0020207400BF012082
:104B000099E70120607400BF0020207400BF00BF3F
:104B100091E70000805101002DE9F04704460D4661
:104B200090460026002704B115B90120BDE8F087A2
:104B300000BF207C012801D10220F7E7012020746A
:104B400000BF02206074B8F1000F0BD128784FF439
:104B5000616148436978C1EB011100EB8100A978DC
:104B6000461812E0287801F0A3FF4FF4616100FBC2
:104B700001F9687801F09CFFC0EB001009EB800997
:104B8000A87801F095FF09EB00063146204602F0B7
:104B9000D4F838B10420607400BF0020207400BF36
:104BA0000120C3E72068406820F0050021684860C4
:104BB000204602F043F80746781C80B1B7420ED277
:104BC0000B4807443946204602F0A0F838B10420CB
:104BD000607400BF0020207400BF0120A6E7012000
:104BE000607400BF0020207400BF00BF9EE700007B
:104BF0008051010070B5044600250CB9012070BD3C
:104C00002068406820F0080021684860FDF7C8FD72
:104C1000054607E0FDF7C4FD401BB0F57A7F01D9DA
:104C20000320ECE72068406800F008000028F1D07D
:104C30000020E4E710B504460CB9012010BD0220A5
:104C400084F851002068006820F040002168086066
:104C5000204600F06DF80020606584F8510000BF28
:104C600084F8500000BF00BFE8E7014691F851000A
:104C7000704710B504460CB9012010BD606A38B900
:104C80006068B0F5827F00D105E00021E16102E0BB
:104C90000021216161610021A16294F8510028B9CD
:104CA000002084F85000204600F06EF8022084F8BE
:104CB00051002068006820F0400021680860A0884A
:104CC00000F48270218901F404410843A18901F4B0
:104CD00000610843217C01F002010843217D01F0BD
:104CE00001010843218B01F400710843217F01F089
:104CF000380108432021095D01F080010843218D1E
:104D000001F400510843216808600421A06901EA08
:104D10001040216848602068C06920F40060216864
:104D2000C86100206065012084F851000020A4E7DC
:104D300010B504460F49206888420AD10E488069A0
:104D400020F480500C498861E0210C48FDF7F0FA0E
:104D50000EE00B49206888420AD10748C06920F458
:104D600080400549C8614FF460410648FDF7E0FA0C
:104D700010BD00000030014000100240000801405A
:104D800000380040000C014010B586B004460020F9
:104D900002900390049005903449206888422ED1F7
:104DA00000BF3348806940F480503149886108462B
:104DB000806900F48050019000BF00BF00BF08462A
:104DC000806940F0040088610846806900F00400B2
:104DD000019000BF00BFA02002900220039003209A
:104DE000059002A92348FDF73DFB402002900020DA
:104DF0000390049002A91F48FDF734FB33E01E49DD
:104E0000206888422FD100BF1948C06940F4804013
:104E10001749C8610846C06900F48040019000BF8E
:104E200000BF00BF0846806940F00800886108465E
:104E3000806900F00800019000BF00BF4FF42040DF
:104E40000290022003900320059002A90B48FDF771
:104E500009FB4FF48040029000200390049002A9C7
:104E60000648FDF7FFFA06B010BD00000030014013
:104E7000001002400008014000380040000C0140D2
:104E80002DE9F8430446884616461D4694F851001D
:104E9000012802D00220BDE8F8836068B0F5827F67
:104EA0000CD1A06850B9042084F851003346424622
:104EB00041462046009500F083F9ECE7FDF770FCD1
:104EC0000746B8F1000F00D00EB90120E3E700BF9C
:104ED00094F85000012801D10220DCE7012084F879
:104EE000500000BF042084F8510000206065C4F821
:104EF0003880A687E6872063A086E0862064606409
:104F0000A068B0F5004F0BD12068006820F0400089
:104F1000216808602068006820F4804021680860EB
:104F20002068006800F04000402805D02068006834
:104F300040F0400021680860E06830BB21E0206854
:104F4000806800F0010050B12068007BA16B087000
:104F5000A06B401CA063E08F401EE08711E0FDF7CE
:104F60001FFCC01BA84201D3681C00B94DB9012029
:104F700084F8510000BF002084F8500000BF0320D7
:104F800089E7E08F0028DAD125E021E020688068F9
:104F900000F0010050B12068C068A16B0880A06BD0
:104FA000801CA063E08F401EE08711E0FDF7F8FB56
:104FB000C01BA84201D3681C00B94DB9012084F878
:104FC000510000BF002084F8500000BF032062E7BA
:104FD000E08F0028DAD13A462946204601F0C4FE87
:104FE00008B120206065012084F8510000BF002036
:104FF00084F8500000BF606D08B101204BE700202D
:1050000049E72DE9F84304460F4616461D46FDF7CD
:10501000C7FB8046B14694F85100012802D0022017
:10502000BDE8F88307B10EB90120F9E700BF94F895
:105030005000012801D10220F2E7012084F850003D
:1050400000BF032084F85100002060652763A68616
:10505000E686A063A087E08760642064A068B0F55E
:10506000004F0BD12068006820F0400021680860E4
:105070002068006840F4804021680860206800686B
:1050800000F04000402805D02068006840F0400053
:1050900021680860E068B0F5006F37D1606810B132
:1050A000B9F1010F09D1206B00882168C860206B1D
:1050B000801C2063E08E401EE08623E0206880682C
:1050C00000F0020002280AD1206B00882168C86025
:1050D000206B801C2063E08E401EE08612E0FDF70E
:1050E0005FFBA0EB0800A84201D3681C00B94DB9D2
:1050F000012084F8510000BF002084F8500000BF58
:1051000003208DE7E08E0028D8D136E0606810B12A
:10511000B9F1010F09D1206B007821680873206B69
:10512000401C2063E08E401EE08623E020688068FB
:1051300000F0020002280AD1206B00782168087371
:10514000206B401C2063E08E401EE08612E0FDF7DD
:1051500027FBA0EB0800A84201D3681C00B94DB999
:10516000012084F8510000BF002084F8500000BFE7
:10517000032055E7E08E0028D8D142462946204634
:1051800001F02EFE08B120206065A06850B900BF74
:10519000002000902068C06800902068806800901F
:1051A00000BF00BF012084F8510000BF002084F838
:1051B000500000BF606D08B1012031E700202FE7EB
:1051C0002DE9FE4F04460F4690461D460C9E0120D9
:1051D0000190FDF7E5FA814694F851B060680290BD
:1051E000AA46BBF1010F0BD00298B0F5827F04D123
:1051F000A06810B9BBF1040F02D00220BDE8FE8FF9
:105200001FB1B8F1000F00D00DB90120F6E700BFC3
:1052100094F85000012801D10220EFE7012084F822
:10522000500000BF94F85100042802D0052084F8F3
:10523000510000206065C4F83880E587A5872763A2
:10524000E586A586206460642068006800F0400060
:10525000402805D02068006840F0400021680860C0
:10526000E068B0F5006F52D1606810B1BAF1010F7B
:1052700009D1206B00882168C860206B801C2063E6
:10528000E08E401EE0863BE02068806800F002006F
:10529000022810D1E08E70B1019801280BD1206B4B
:1052A00000882168C860206B801C2063E08E401E4F
:1052B000E086002001902068806800F0010068B15D
:1052C000E08F58B12068C068A16B0880A06B801C7B
:1052D000A063E08F401EE08701200190FDF760FA97
:1052E000A0EB0900B0420BD3701C48B1012084F838
:1052F000510000BF002084F8500000BF03207DE76C
:10530000E08E0028C0D1E08F0028BDD152E0606857
:1053100010B1BAF1010F09D1206B00782168087330
:10532000206B401C2063E08E401EE0863CE020683D
:10533000806800F00200022810D1E08E70B1019860
:1053400001280BD1206B007821680873206B401C6A
:105350002063E08E401EE086002001902068806877
:1053600000F0010068B1E08F58B12068C068A16BFF
:105370000870A06B401CA063E08F401EE0870120F6
:105380000190FDF70DFAA0EB0900B04201D3701CAB
:1053900000B94EB9012084F8510000BF002084F804
:1053A000500000BF032029E7E08E0028BFD1E08F26
:1053B0000028BCD14A463146204601F011FD40B1DB
:1053C0002020606500BF002084F8500000BF01204D
:1053D00014E7A06850B900BF002000902068C068A2
:1053E000009020688068009000BF00BF012084F812
:1053F000510000BF002084F8500000BF606D08B16C
:105400000120FBE60020F9E670B504462546681E3B
:10541000B0F1807F01D301200FE0681E4FF0E02142
:1054200048610F214FF0FF3004F0EEFA00204FF0FA
:10543000E021886107200861002070BD00BFFEE701
:10544000014608684069C0F38020B0B16FF4806005
:105450000A68506100200863202081F83D00002088
:1054600081F83E00086C40F00400086400BF002092
:1054700081F83C0000BF012070470020FCE70000DD
:105480002DE9F84304460D4690461E46E76A20681B
:10549000006840F4806021680860082F04D0012F64
:1054A00002D017F5803F06D12068006840F4807074
:1054B0002168086008E0206B112805D12068006889
:1054C00040F4807021680860434600224FF00111CB
:1054D0002046009600F003F960B12068006800F4EF
:1054E0008070B0F5807F02D14FF4007020640320FB
:1054F000BDE8F8832069B0F5804F05D1E8B240F0EF
:1055000001002168086149E005F44070F02141EA9A
:10551000E01021680861334642462649204600F0E3
:105520003DF908B10120E3E7E8B22168086133469C
:1055300042462049891F204600F030F908B1012079
:10554000D6E700BF002000902068406900902068E6
:105550008069009000BF00BF2068006840F4807040
:1055600021680860434600224FF001112046009652
:1055700000F0B5F858B12068006800F48070B0F50C
:10558000807F02D14FF4007020640320B0E705F45F
:105590004070F12141EAE01021680861334642463B
:1055A0000449891F204600F0F9F808B101209FE75F
:1055B00000209DE7080001002DE9F84304460D4650
:1055C00017469846E66A082E04D0012E02D016F53A
:1055D000803F06D12068006840F480702168086030
:1055E00008E0206B122805D12068006840F4807024
:1055F000216808603B4600224FF001112046CDF89B
:10560000008000F06CF860B12068006800F48070E1
:10561000B0F5807F02D14FF4007020640320BDE814
:10562000F8832069B0F5804F04D105F0FE002168B1
:10563000086112E005F44070F02141EAE0102168B1
:10564000086143463A460B49204600F0A7F808B1E6
:105650000120E4E7E8B22168086143463A4605497B
:10566000891F204600F09AF808B10120D7E70020F2
:10567000D5E700000800010070B504460D46164647
:1056800025E02046FFF7DCFE08B1012070BD681C54
:10569000E8B1FDF785F8801BA84200D8BDB92068A5
:1056A0004069C0F3800090B900202063202084F876
:1056B0003D00002084F83E00206C40F02000206473
:1056C00000BF002084F83C0000BF0120DEE7206816
:1056D0004069C0F380000028D3D00020D6E72DE930
:1056E000F04104460D4617461E46DDF8188038E0A6
:1056F000701CA8B3FDF754F8A0EB0800B04200D826
:1057000076BBC5F3074001280AD120684069A9B2D9
:105710000840A9B2884201D101200BE0002009E035
:1057200020688069A9B20840A9B2884201D101204D
:1057300000E00020B84214D100202063202084F82B
:105740003D00002084F83E00206C40F020002064E2
:1057500000BF002084F83C0000BF0120BDE8F081BC
:10576000FFE7C5F3074001280AD120684069A9B2C4
:105770000840A9B2884201D101200BE0002009E0D5
:1057800020688069A9B20840A9B2884201D10120ED
:1057900000E00020B842ABD00020DFE72DE9F04167
:1057A00004460D4616461F4658E020684069C0F37F
:1057B0008020E8B12068006840F40070216808602B
:1057C0006FF480602168486100202063202084F805
:1057D0003D00002084F83E00206C40F0040020646E
:1057E00000BF002084F83C0000BF0120BDE8F0812C
:1057F000701C90B3FCF7D4FFC01BB04200D866BB4E
:10580000C5F3074001280AD120684069A9B20840C1
:10581000A9B2884201D101200BE0002009E02068F4
:105820008069A9B20840A9B2884201D1012000E0F4
:10583000002090B900202063202084F83D00002043
:1058400084F83E00206C40F02000206400BF00205F
:1058500084F83C0000BF0120C8E7FFE7C5F307401C
:1058600001280AD120684069A9B20840A9B288423B
:1058700001D101200BE0002009E020688069A9B275
:105880000840A9B2884201D1012000E00020002890
:105890008BD00020AAE770B504460D46164637E0C7
:1058A00020684069C0F30010A0B16FF010002168BB
:1058B000486100202063202084F83D00002084F807
:1058C0003E00206C206400BF002084F83C0000BF34
:1058D000012070BDFCF764FF801BA84200D8BDB951
:1058E00020684069C0F3801090B900202063202018
:1058F00084F83D00002084F83E00206C40F0200039
:10590000206400BF002084F83C0000BF0120E0E7D5
:1059100020684069C0F380100028C1D00020D8E77B
:1059200070B504460D46164625E02046FFF788FD73
:1059300008B1012070BD681CE8B1FCF731FF801B85
:10594000A84200D8BDB920684069C0F3C01090B922
:1059500000202063202084F83D00002084F83E00D1
:10596000206C40F02000206400BF002084F83C0040
:1059700000BF0120DEE720684069C0F3C0100028A6
:10598000D3D00020D6E730B50B46002100BF16E08B
:105990000A24B4EB107F05D9302404EB107403F80B
:1059A000114005E0412404EB10740A3C03F8114057
:1059B000000100254C00641C1D554C1CE1B29142B5
:1059C000E6DB30BDF8B504460D4616461F4645F0E9
:1059D00080000090A18800222068FCF7DBFE4FF4D5
:1059E000FA6301226946A069FFF70BFB00BFA069BB
:1059F000FFF73BF90128FAD14FF4FA633A463146F2
:105A0000A069FFF7FEFA00BFA069FFF72EF9012891
:105A1000FAD1A18801222068FCF7BCFEF8BD2DE96F
:105A2000F04104460D460121204600F0A6F8064646
:105A3000374625B906F0F8070020E0611EE0012D89
:105A400005D106F0F800471C0120E06116E0032DA7
:105A500005D106F0F800C71C0320E0610EE0052D1B
:105A600005D106F0F800471D0520E06106E0062D8F
:105A700004D106F0F800871D0620E0613A460121B6
:105A8000204600F0A1FABDE8F0812DE9F04104467E
:105A9000204600F06FF818B940F2F710BDE8F08129
:105AA0000A20FCF731FC0121204600F066F805468B
:105AB00045F080020121204600F086FA6420FCF7C0
:105AC00023FC2046216A00F035F994F82A1020467C
:105AD00000F08EF994F82B10204600F065F923228F
